:100000000C9435000C946C000C946C000C946C00F7
:100010000C946C000C946C000C946C000C946C00B0
:100020000C946C000C946C000C946C000C94090300
:100030000C946C000C946C000C946C000C946C0090
:100040000C94BF020C946C000C948D020C9467020B
:100050000C946C000C946C000C946C000C946C0070
:100060000C946C000C946C000E0D11241FBECFEF8D
:10007000D8E0DEBFCDBF84B78093CF0214BE0FB6E9
:10008000F894A89580916000886180936000109238
:1000900060000FBE11E0A0E0B1E0E2E9FBE102C0C8
:1000A00005900D92A231B107D9F722E0A2E1B1E0AB
:1000B00001C01D92AE3CB207E1F710E0C5E3D0E00D
:1000C00004C02197FE010E94B20DC433D107C9F7C5
:1000D0000E9475040C94C70D0C940000AF92BF925F
:1000E000CF92DF92EF92FF920F931F93CF93DF9304
:1000F0006C017B018B01040F151FEB015E01AE1833
:10010000BF08C017D10759F06991D601ED91FC9154
:100110000190F081E02DC6010995892B79F7C50181
:10012000DF91CF911F910F91FF90EF90DF90CF90D3
:10013000BF90AF900895FC01538D448D252F30E082
:10014000842F90E0821B930B541710F0CF960895E4
:1001500001970895FC01918D828D981761F0A28D11
:10016000AE0FBF2FB11D5D968C91928D9F5F9F73D7
:10017000928F90E008958FEF9FEF0895FC01918D8D
:10018000828D981731F0828DE80FF11D858D90E0FA
:1001900008958FEF9FEF0895FC01918D228D892F97
:1001A00090E0805C9F4F821B91098F73992708957F
:1001B0008AEC91E00E94CC0021E0892B09F420E038
:1001C000822F089580E090E0892B29F00E94D800CA
:1001D00081110C9400000895FC01A48DA80FB92F83
:1001E000B11DA35ABF4F2C91848D90E001968F735F
:1001F0009927848FA689B7892C93A089B1898C917E
:10020000837080648C93938D848D981306C00288CC
:10021000F389E02D80818F7D80830895EF92FF9296
:100220000F931F93CF93DF93EC0181E0888F9B8D19
:100230008C8D98131AC0E889F989808185FF15C0D3
:100240009FB7F894EE89FF896083E889F9898081F6
:100250008370806480839FBF81E090E0DF91CF91C5
:100260001F910F91FF90EF900895F62E0B8D10E0E7
:100270000F5F1F4F0F731127E02E8C8D8E110CC056
:100280000FB607FCFACFE889F989808185FFF5CFA1
:10029000CE010E94EC00F1CFEB8DEC0FFD2FF11D94
:1002A000E35AFF4FF0829FB7F8940B8FEA89FB89DE
:1002B00080818062CFCFCF93DF93EC01888D88233C
:1002C000B9F0AA89BB89E889F9898C9185FD03C0B9
:1002D000808186FD0DC00FB607FCF7CF8C9185FF9E
:1002E000F2CF808185FFEDCFCE010E94EC00E9CFF7
:1002F000DF91CF9108952FB7F89460911701709115
:1003000018018091190190911A012FBF0895CF9281
:10031000DF92EF92FF92CF93C82F6A017B01209169
:100320007B0130E0C90101966CE070E00E943B0D5A
:1003300090917C01981779F095E0929FF001939F3E
:10034000F00D1124E15CFE4FC083C182D282E382B2
:10035000F48280937B01CF91FF90EF90DF90CF905C
:100360000895CF92DF92EF92FF920F931F938C012B
:10037000222733270627172728273927C12ED22ED1
:10038000E32EFF24C026D126E226F326970186011C
:1003900054E036952795179507955A95D1F7C026BD
:1003A000D126E226F32697018601E2E036952795CD
:1003B00017950795EA95D1F70C251D252E253F2584
:1003C00068017901F694E794D794C7940C2500FD51
:1003D00090681F910F91FF90EF90DF90CF9008955C
:1003E0000F931F938C0122273327DC01CB01802739
:1003F0009127A227B327492F5A2F6B2F77278427BE
:100400009527A627B727AC01BD01E4E0769567954F
:1004100057954795EA95D1F784279527A627B727BB
:10042000AC01BD01F2E07695679557954795FA9531
:10043000D1F784279527A627B727AC01BD0176956C
:1004400067955795479584279527A627B7278095C1
:100450009095A095B09581701F910F9108959FB7C9
:10046000F8942DE1829FF0011124E659FD4F41835C
:1004700052836383748381E085831682178280832D
:100480009FBF08959DE1899FF0011124E659FD4F1A
:10049000248D91E0811190E0291721F091E0611104
:1004A00090E0692F90916802992319F091E0981BD0
:1004B000892F882339F088E09BB1662329F0892BA6
:1004C0008BB9089580E1F8CF80958923F9CF1F92E9
:1004D0000F920FB60F9211242F933F934F935F9378
:1004E0006F937F938F939F93AF93BF93EF93FF93FC
:1004F0008AEC91E00E94EC00FF91EF91BF91AF91E7
:100500009F918F917F916F915F914F913F912F912B
:100510000F900FBE0F901F9018951F920F920FB65D
:100520000F9211242F938F939F93EF93FF93E0915A
:10053000DA01F091DB018081E091E001F091E101CD
:1005400082FD1BC090818091E3018F5F8F732091AA
:10055000E401821741F0E091E301F0E0E653FE4F41
:10056000958F8093E301FF91EF919F918F912F9150
:100570000F900FBE0F901F9018958081F4CF1F929F
:100580000F920FB60F9211242F933F938F939F9347
:10059000AF93BF938091170190911801A091190119
:1005A000B0911A013091160126E0230F2D3758F52E
:1005B0000296A11DB11D20931601809317019093FF
:1005C0001801A0931901B0931A0180911201909122
:1005D0001301A0911401B09115010196A11DB11D47
:1005E0008093120190931301A0931401B09315010D
:1005F000BF91AF919F918F913F912F910F900FBE1F
:100600000F901F90189529E8230F0396A11DB11D87
:10061000D2CF1F920F920FB60F921124FF920F9319
:100620001F932F933F934F935F936F937F938F937A
:100630009F93AF93BF93CF93DF93EF93FF93D0E05C
:10064000C0E01DE101E0FC2E1C9FF0011D9FF00D9C
:100650001124E659FD4F8081882319F18781843068
:1006600008F0A3C0858161E0811160E08F2D0E94B8
:1006700042021C9FF0011D9FF00D1124E659FD4F11
:1006800087818F5F8783883060F0178286818F5FD4
:100690008683823208F48BC0108261E08F2D0E9425
:1006A000420280916802882319F0802F8F19F82E5A
:1006B000F1109AC080B785FB882780F91C9FF00154
:1006C0001D9FF00D1124E659FD4F938D9111802748
:1006D0001C9FF0011D9FF00D1124E659FD4F9089DC
:1006E000981749F09081911106C0918D9F3F19F0A4
:1006F000918D9F5F918F1C9FF0011D9FF00D112424
:10070000E659FD4F96859F3F19F096859F5F968726
:100710001C9FF0011D9FF00D1124E659FD4F90899B
:10072000981709F4D2C0268516869085911162C06B
:10073000908191110CC09089913049F4811107C0CA
:1007400090871586118612861386148617861C9F3D
:10075000F0011D9FF00D1124E659FD4F808B21976C
:1007600009F5B19B09C0809167028F3F29F0809104
:1007700067028F5F80936702FF91EF91DF91CF91C6
:10078000BF91AF919F918F917F916F915F914F91A9
:100790003F912F911F910F91FF900F900FBE0F90DF
:1007A0001F901895C1E0D0E04ECF65815FCF868164
:1007B000813211F4058375CF81819281A381B48147
:1007C0008827B7FD83959927AA27BB278583818131
:1007D0009281A381B481880F991FAA1FBB1F8183B7
:1007E0009283A383B4835DCF89B185FB882780F989
:1007F000802764CF9785992351F191E0263008F442
:1008000090E01C9FF0011D9FF00D1124E659FD4F53
:100810009787992309F49BCF958591111AC081116F
:1008200007C01086268937892F5F3F4F378B268B6D
:100830001C9FF0011D9FF00D1124E659FD4F90857E
:10084000992309F484CF95859F5F958780CF91E0A8
:10085000D8CF9585913270F4418552856385748532
:10086000440F551F661F771F482B418752876387A8
:100870007487DECF81110FC0268937892F5F3F4FE4
:10088000378B268B1C9FF0011D9FF00D1124E6591C
:10089000FD4F1086CDCF9189992339F0908D9F3FE0
:1008A00089F3908D9F5F908FEDCF41855285638551
:1008B0007485428B538B648B758B018B928D9F302B
:1008C00008F7928D9F5F928FDDCF9085992309F471
:1008D0003ECF9685913108F43ACF10862689378924
:1008E0002F5F3F4F378B268B32CFCF93DF93CDB720
:1008F000DEB76C970FB6F894DEBF0FBECDBF78940D
:1009000084B5826084BD84B5816084BD85B5826014
:1009100085BD85B5816085BD80916E0081608093C5
:100920006E0010928100809181008260809381002E
:10093000809181008160809381008091800081603E
:10094000809380008091B10084608093B100809199
:10095000B00081608093B00080917A0084608093C1
:100960007A0080917A00826080937A0080917A0088
:100970008E7F80937A0080917A00806880937A00DD
:100980001092C1008FE184B915B880E387B98FEC6C
:1009900088B98EE18AB989E18BB961E081E00E9472
:1009A000420261E080E00E944202229A2A983A982C
:1009B000429A3C9A44989DE1EAE6F2E0DF01292F51
:1009C0001D922A95E9F781E080937A02E7E8F2E048
:1009D000DF011D929A95E9F780939702E091DA0181
:1009E000F091DB0192E09083E091D601F091D70184
:1009F0001082E091D801F091D90187E680831092AE
:100A0000E201E091DE01F091DF0186E08083E09178
:100A1000DC01F091DD01808180618083E091DC0167
:100A2000F091DD01808188608083E091DC01F091AC
:100A3000DD01808180688083E091DC01F091DD013F
:100A400080818F7D808380E480BFE4ECF0E031978B
:100A5000F1F780E580BF1092800089E080938100EB
:100A600027EE33E0309389002093880010928500B0
:100A70001092840090936F008091CF0280FFA6C0F7
:100A80001092CE020E947B01605E734984409109FE
:100A90006093C3017093C4018093C5019093C60114
:100AA000789488E19FE00FB6F894A8958093600051
:100AB0000FBE909360001AE0812E912CA12CB12CD6
:100AC00011E022242394312CA89580913D0190912E
:100AD0003E018130910509F4E2C208F47DC002971D
:100AE00009F4B6C20E947B014090390150903A014E
:100AF00060903B0170903C01641975098609970963
:100B0000693873418105910510F01092C8020E9466
:100B10007B0140901B0150901C0160901D01709062
:100B20001E016419750986099709693873418105A1
:100B3000910510F01092C90205E070907C0180913F
:100B40007B01781609F4FCC38AEC91E00E949B00BB
:100B500007970CF4F5C322EF2983079DF0011124B8
:100B6000E15CFE4F20812A8381819281A381B4813F
:100B70004B2F552766277727498F5A8F6B8F7C8F8E
:100B80004B832D01662477244C82492F5A2F6B2FDB
:100B900077274D838E832E50398D230F420E440DBF
:100BA000840F8F8347E050E0BE016F5F7F4F8AEC78
:100BB00091E00E946E0080917C0190E001966CE0D3
:100BC00070E00E943B0D80937C01B7CF8091CE02F4
:100BD0008F5F8093CE0256CF9FB7F89480917B02AF
:100BE000882309F455C0C0907C02D0907D02E0902B
:100BF0007E02F0907F0210927B0281E09FBF811104
:100C0000A5C00091AD018091AE01081709F442C062
:100C10004090390150903A0160903B0170903C0146
:100C20000E947B0164197509860997096739710566
:100C30008105910578F1802F90E0FC01EE0FFF1FF8
:100C4000EE0FFF1FE356FE4F40805180628073809D
:100C50000196837099278093AD0110933801B301F9
:100C6000A20181E00E942F02B301A20182E00E9452
:100C700087010E947B01609334017093350180935A
:100C800036019093370130923E0120923D012ACFE8
:100C900080E0B4CF8091C802811124CF0E947B01F3
:100CA00040903001509031016090320170903301DA
:100CB0006419750986099709693E73408105910594
:100CC00008F410CF0E947B016093300170933101D2
:100CD00080933201909333018091BB02882331F0DD
:100CE00081E09091B602911101C080E090912F01B6
:100CF00021E0290F20932F0190FF06C081110FC022
:100D000060E070E0CB0106C08823D1F360E071E0C1
:100D100080E090E00E94B1012B013C019ECF6091E8
:100D2000B6022AE0629FB0011124072E000C880B46
:100D3000990B982F872F762F6627A50194010E9483
:100D40004F0DCA01B90181609061E4CF0E947B011F
:100D50006093390170933A0180933B0190933C0179
:100D60001093C802C701B6010E94F001811109C0A9
:100D7000809169028F3008F0B5CE8F5F8093690251
:100D8000B1CE0E2DD701C6015CE1B695A79597951A
:100D900087955A95D1F7382F3770398F323050F404
:100DA0000130C9F108F46AC0003109F457C00831B4
:100DB00009F444C0B701A60180E00E948701809138
:100DC000B202882309F45DC0498D413009F0B9C0F1
:100DD000C701B6019F7090650E94B1016093270121
:100DE000709328018093290190932A010E947B012E
:100DF000685D7F4F8F4F9F4F609323017093240155
:100E00008093250190932601A2E0B0E0B0933E01CB
:100E1000A0933D0167CED6012AE030E00E94750D17
:100E200020E031E040E050E00E944F0DC9016AE04F
:100E300070E00E943B0D6093BF02BCCFD6012AE058
:100E400030E00E94750D20E031E040E050E00E946B
:100E50004F0D3093C1022093C002ACCFD6012AE0DF
:100E600030E00E94750D20E031E040E050E00E944B
:100E70004F0D3093C3022093C2029CCFD092BD028B
:100E800099CF8091C90281111EC00E947B014090C0
:100E90002B0150902C0160902D0170902E0164194F
:100EA000750986099709603177428105910508F433
:100EB0008BCF0E947B0160932B0170932C01809358
:100EC0002D0190932E01C0921F01D0922001E0923B
:100ED0002101F0922201109238018091BC028823F6
:100EE00041F1B98DB13029F5013019F56091A802B1
:100EF000653608F064E62AE0629FB0011124072EEF
:100F0000000C880B990B982F872F762F6627A50149
:100F100094010E944F0DCC24DD24E894F7F8CA0117
:100F2000B9016C297D298E299F290E94B1016B018D
:100F30007C01B701A60181E00E942F02B701A60142
:100F400095CE698D662329F0C701B6019F70906721
:100F500043CF093009F454C0D8F40330B1F105305F
:100F6000A1F10023A9F1EDE7F1E090E080E0238119
:100F7000222309F466C02081021363C0880F991FE1
:100F8000880F991FFC01E358FE4F218132812AC04E
:100F9000093109F441C0A8F4013129F76091B00288
:100FA0008AE0689FB0011124072E000C880B990B72
:100FB000982F872F762F6627A50194010E944F0D49
:100FC00011C00C3149F1043671F630E020E00AC05E
:100FD0008091BD0220E080FD22E08091B10281116C
:100FE000286030E0C701B60166277727992790640B
:100FF0002901712C612C622B752986299729ECCE49
:101000008091BB02882309F36091AD027091AE021A
:1010100061157105D1F2C8CF8091BB02811105C065
:10102000C701B6019F709066D7CE6091A9027091FA
:10103000AA02093109F4B8CF6091AB027091AC02F9
:10104000B3CF019634968830910509F090CF7CCFCC
:101050000E947B0140902301509024016090250163
:1010600070902601641975098609970997FD3ACD94
:1010700040902701509028016090290170902A012A
:10108000B301A20180E00E942F02B301A20183E01C
:101090000E94870110923E0110923D0123CD9FB71F
:1010A000F89480919802882309F46AC0C09099024C
:1010B000D0909A02E0909B02F0909C0210929802CD
:1010C00081E09FBF882309F4E6C00E947B01609302
:1010D0001B0170931C0180931D0190931E011093BE
:1010E000C902C701B6010E94F001882399F2D70115
:1010F000C6010CE1B695A795979587950A95D1F706
:10110000082F07708CEF800F823050F4C701AA2798
:10111000BB27853009F45DC0A8F5882309F45CC0BD
:10112000B701A60181E00E948701809138018111F9
:10113000B1CF043009F059C02E2DEDE7F1E090E079
:1011400080E03381332309F44AC03081231347C040
:10115000CC24DD24E894F7F8880F991F880F991F95
:10116000FC01E358FE4F6181728190E080E06C29C0
:101170007D298E299F290E94B1016B017C0149C004
:1011800080E09FCF813191F0893151F6D6012AE07C
:1011900030E00E94750D20E031E040E050E00E9418
:1011A0004F0D3093C5022093C402BACFD6012AE076
:1011B00030E00E94750D20E031E040E050E00E94F8
:1011C0004F0DC9016AE070E00E943B0D6093C602BA
:1011D000A7CFC092C702A4CFC092BE02A1CF0196F2
:1011E00034968830910509F0ACCF8091BB028823FA
:1011F00081F08E2D6091AD027091AE026115710586
:1012000021F0893071F08436F9F09091A7029111A4
:101210001EC0B701A60180E00E942F02B701A601FF
:1012200036CF072E000C880B990B982F872F762F1F
:101230006627A50194010E944F0DCC24DD24FF24D4
:101240006894F6F8B90191CF30E020E0F6CF043091
:1012500001F7893139F08C31E1F66091AB02709180
:10126000AC0204C06091A9027091AA02072E000C82
:10127000880B990B982F872F762F6627A50194014D
:101280000E944F0DCA01B90188279927CC24DD247B
:10129000E894F7F86CCF409034015090350160909D
:1012A00036017090370180913801811137C00E945A
:1012B0007B016419750986099709613971408105B7
:1012C000910508F40FCC80911F0190912001A0910D
:1012D0002101B0912201A1112EC06091BE0270E0E7
:1012E00090E080E090640E94B101609327017093C8
:1012F00028018093290190932A010E947B01609329
:10130000230170932401809325019093260162E0CC
:1013100070E070933E0160933D01E4CB0E947B013D
:10132000641975098609970961397140810591052C
:1013300008F0B0CEBCCFBC01CD019F709067D3CF79
:1013400000E18AEC91E00E94CC00892B09F463C192
:101350008AEC91E00E94AA00E091C201E11104C070
:10136000813FD1F40093C10121E02E0F2093C201EF
:10137000F0E0EF54FE4F80839091C101291708F3EC
:101380001092C2012FEF290FE1EBF1E080E0215034
:1013900048F03191830FFBCF833F99F647E04093AC
:1013A000C101E2CFE92FF0E0E055FE4F2081281780
:1013B00051F08091AF019091B00101969093B001EE
:1013C0008093AF01BECF3091B2018091B3019730CD
:1013D00009F074C06091B3017091B4018091B501BE
:1013E0009091B6010E946E0DAB01BC012B016624E9
:1013F0007724242D313079F198F0323009F0A1CFE3
:10140000EDE7F1E08381882321F08081281301C07A
:10141000138234966DE971E06E177F0799F791CFCB
:101420008091AE0190E09C012F5F3F4F23703327E6
:10143000E091AD01E21709F484CF880F991F880F5E
:10144000991FFC01E356FE4F4083518362837383EF
:101450002093AE0176CFADE7B1E0FD0190E080E0F2
:101460003381332369F0308123130AC0880F991F19
:10147000880F991FFC01E358FE4F5283418361CFCF
:10148000019634968830910559F790E080E01396E4
:101490002C91139721110CC0880F991F880F991F49
:1014A000FC01E358FE4F408252834183138349CFAE
:1014B000019614968830910551F743CF932F917080
:1014C0009093A60231FB992790F99093A70232FBE3
:1014D000992790F99093850233FB992790F990937F
:1014E000A20234FB992790F99093B30283FB9927CA
:1014F00090F99093B40284FB992790F99093B502E8
:101500009091BE019093B60235FB332730F93093AA
:10151000C7019091860221E0911101C020E09091D5
:10152000A302992309F473C092E0922B20916802E0
:10153000222309F46EC024E0382F317030938602E4
:1015400081FB332730F93093A30282FB332730F934
:1015500030936802922B8770981779F080916A0215
:10156000811103C061E00E944202809187028111D3
:1015700004C061E081E00E9442028091B401809346
:10158000A8028091B5019091B601982789279827E4
:101590009093AA028093A9028091B7019091B8011B
:1015A0009827892798279093AC028093AB0280916B
:1015B000B9019091BA019827892798279093AE0294
:1015C0008093AD028091BB018093AF028091BC01FA
:1015D0008093B0028091BD018093C9018091B201D6
:1015E00086FB992790F99093B102881F8827881F5E
:1015F0008093B2020E947B016093B7027093B8029D
:101600008093B9029093BA021093BB029ACE90E0F5
:101610008CCF20E091CF0091BB02002319F10E94F2
:101620007B014090B7025090B8026090B902709070
:10163000BA02641975098609970961367A4E8105DF
:10164000910508F4E5C11092BB021092A602109217
:10165000A7021092AE021092AD021092B202109246
:10166000AF0200E0198E8091BC028017F9F00E9451
:101670007B014090C3015090C4016090C5017090FF
:10168000C6016419750986099709603E734984404B
:10169000910560F00093BC020E947B016093C3013E
:1016A0007093C4018093C5019093C6018091AF02ED
:1016B0008230C1F198F48130B9F18091BE0280FD91
:1016C00031C08091C802882369F0298D21112CC076
:1016D0000E947B0171FB662760F90EC08330C1F365
:1016E000843059F70E947B0127E09695879577957E
:1016F00067952A95D1F761708091C70181116127A3
:101700006623A1F0449A8091B402882389F086B1BF
:1017100082FB882780F981278093C80181110EC040
:101720002A980DC061E0E8CF60E0E6CF4498EBCFA7
:101730008091BB02811109C01093C8012A9A80913F
:10174000C801882329F0459811C08091B302E4CFE5
:101750008091BC02882309F417C18091A80290915E
:10176000B502992381F3843170F3459A8091C901C0
:1017700080FF0DC1289A8091C90181FF0AC1299A71
:101780008091C90182FF07C12B9A8091C90183FF13
:1017900004C12C9A8091C90184FF01C15A9A0E9408
:1017A0007B014090CA025090CB026090CC027090B6
:1017B000CD02641975098609970997FD1CC10E941D
:1017C0007B016053784F8F4F9F4F6093CA02709395
:1017D000CB028093CC029093CD0280EF89838091DD
:1017E000BD028A838091BE028B838091BF028C836D
:1017F0008091C0029091C1029D838E838091C2022C
:101800009091C3029F8388878091C4029091C50202
:1018100099878A878091C6028B878091C7028C87BF
:101820008091C8029091C902992309F4BAC092E04C
:10183000892B9091BC02992309F4B5C094E0892BBF
:101840009091BB0228E0911101C020E09091A40288
:101850009295907F822B892B8D879FB7F8948091EA
:1018600083028E87109283028091A0028F8710924C
:10187000A002809184022091690240E1249F90019E
:1018800011248F70822B888B10928402109269022F
:1018900080B785FB222720F94D9B87C042E05C9BE7
:1018A00086C034E08BB18870822B842B832B2091EF
:1018B0006802222309F47DC020E1822B2091860258
:1018C000222309F478C020E2822B2091A302222354
:1018D00009F473C020E4822B898B2091800230911F
:1018E00081022F3F310511F008F069C0209180027C
:1018F000309181022A8B20919D0230919E022F3FD0
:10190000310511F008F05DC020919D0230919E02DA
:101910002B8B9FBF86B182FB882780F981272A9B6A
:1019200052C092E0892B9091B402992309F44DC0E2
:1019300094E0892B459B4BC098E0892B8C8B86B11A
:1019400096B181709270892B339B43C094E0892BB0
:101950008D8B8091CF028F702091CE0250E1259F18
:1019600090011124822B8E8B8FB7F894909167028F
:101970009F8B8FBFFE01319698E180E0BF019150AF
:1019800051F12191820FFBCF8091BF02E8CE2898C0
:10199000F2CE2998F5CE2B98F8CE2C98FBCE5A98FB
:1019A000FECE90E045CF90E04ACF40E078CF30E0E7
:1019B00079CF20E082CF20E087CF20E08CCF2FEFBF
:1019C00099CF2FEFA5CF90E0ADCF90E0B2CF90E0D0
:1019D000B4CF90E0BCCF888F8091A4029091A502F3
:1019E00001969093A5028093A40248E150E08AEC0E
:1019F00091E00E946E0080E090E0892B09F464C8B9
:101A00000E94D800882309F45BC80E94000058C8CF
:101A10006091BB02698F0091A60225CEEAECF1E04D
:101A20001382128288EE93E0A0E0B0E08483958375
:101A3000A683B78384E091E09183808385EC90E076
:101A40009587848784EC90E09787868780EC90E088
:101A5000918B808B81EC90E0938B828B82EC90E079
:101A6000958B848B86EC90E0978B868B118E128EF3
:101A7000138E148E089597FB072E16F4009407D04A
:101A800077FD09D00E947C0D07FC05D03EF49095AF
:101A900081959F4F0895709561957F4F0895052E0C
:101AA00097FB1EF400940E94660D57FD07D00E941C
:101AB000900D07FC03D04EF40C94660D50954095A4
:101AC000309521953F4F4F4F5F4F089590958095EA
:101AD000709561957F4F8F4F9F4F08956927962787
:101AE000692778278727782708950E94B80DB7FFC0
:101AF0000895821B930B0895AA1BBB1B51E107C0DD
:101B0000AA1FBB1FA617B70710F0A61BB70B881F8D
:101B1000991F5A95A9F780959095BC01CD0108951C
:101B2000A1E21A2EAA1BBB1BFD010DC0AA1FBB1FE1
:101B3000EE1FFF1FA217B307E407F50720F0A21B53
:101B4000B30BE40BF50B661F771F881F991F1A94C0
:101B500069F760957095809590959B01AC01BD01EA
:101B6000CF010895EE0FFF1F0590F491E02D099429
:101B7000A29FB001B39FC001A39F700D811D1124CE
:101B8000911DB29F700D811D1124911D0895F8942F
:021B9000FFCF85
:101B9200000000000E016E009B005B01CC00AA0059
:021BA200BE0083
:00000001FF
