:100000000C9435000C946C000C946C000C946C00F7
:100010000C946C000C946C000C946C000C946C00B0
:100020000C946C000C946C000C946C000C94DF022B
:100030000C946C000C946C000C946C000C946C0090
:100040000C9495020C946C000C9463020C943D0289
:100050000C946C000C946C000C946C000C946C0070
:100060000C946C000C946C00620B11241FBECFEF3B
:10007000D8E0DEBFCDBF84B780935D0214BE0FB65B
:10008000F894A89580916000886180936000109238
:1000900060000FBE11E0A0E0B1E0ECE2F8E102C0C8
:1000A00005900D92A231B107D9F722E0A2E1B1E0AB
:1000B00001C01D92AC35B207E1F710E0C5E3D0E016
:1000C00004C02197FE010E94FF0BC433D107C9F77A
:1000D0000E944B040C94140C0C940000AF92BF923D
:1000E000CF92DF92EF92FF920F931F93CF93DF9304
:1000F0006C017B018B01040F151FEB015E01AE1833
:10010000BF08C017D10759F06991D601ED91FC9154
:100110000190F081E02DC6010995892B79F7C50181
:10012000DF91CF911F910F91FF90EF90DF90CF90D3
:10013000BF90AF900895FC01538D448D252F30E082
:10014000842F90E0821B930B541710F0CF960895E4
:1001500001970895FC01918D828D981761F0A28D11
:10016000AE0FBF2FB11D5D968C91928D9F5F9F73D7
:10017000928F90E008958FEF9FEF0895FC01918D8D
:10018000828D981731F0828DE80FF11D858D90E0FA
:1001900008958FEF9FEF0895FC01918D228D892F97
:1001A00090E0805C9F4F821B91098F73992708957F
:1001B00088E591E00E94CC0021E0892B09F420E041
:1001C000822F089580E090E0892B29F00E94D800CA
:1001D00081110C9400000895FC01A48DA80FB92F83
:1001E000B11DA35ABF4F2C91848D90E001968F735F
:1001F0009927848FA689B7892C93A089B1898C917E
:10020000837080648C93938D848D981306C00288CC
:10021000F389E02D80818F7D80830895EF92FF9296
:100220000F931F93CF93DF93EC0181E0888F9B8D19
:100230008C8D98131AC0E889F989808185FF15C0D3
:100240009FB7F894EE89FF896083E889F9898081F6
:100250008370806480839FBF81E090E0DF91CF91C5
:100260001F910F91FF90EF900895F62E0B8D10E0E7
:100270000F5F1F4F0F731127E02E8C8D8E110CC056
:100280000FB607FCFACFE889F989808185FFF5CFA1
:10029000CE010E94EC00F1CFEB8DEC0FFD2FF11D94
:1002A000E35AFF4FF0829FB7F8940B8FEA89FB89DE
:1002B00080818062CFCFCF93DF93EC01888D88233C
:1002C000B9F0AA89BB89E889F9898C9185FD03C0B9
:1002D000808186FD0DC00FB607FCF7CF8C9185FF9E
:1002E000F2CF808185FFEDCFCE010E94EC00E9CFF7
:1002F000DF91CF9108952FB7F89460911701709115
:1003000018018091190190911A012FBF0895CF9281
:10031000DF92EF92FF920F931F938C0122273327D6
:100320000627172728273927C12ED22EE32EFF2490
:10033000C026D126E226F3269701860154E03695A1
:100340002795179507955A95D1F7C026D126E2260D
:10035000F32697018601E2E03695279517950795D4
:10036000EA95D1F70C251D252E253F256801790139
:10037000F694E794D794C7940C2500FD90681F91DC
:100380000F91FF90EF90DF90CF9008950F931F9300
:100390008C0122273327DC01CB0180279127A2275C
:1003A000B327492F5A2F6B2F772784279527A62706
:1003B000B727AC01BD01E4E0769567955795479561
:1003C000EA95D1F784279527A627B727AC01BD0169
:1003D000F2E07695679557954795FA95D1F784277A
:1003E0009527A627B727AC01BD0176956795579548
:1003F000479584279527A627B72780959095A095A0
:10040000B09581701F910F9108959FB7F8942DE1D9
:10041000829FF0011124E850FE4F41835283638391
:10042000748381E085831682178280839FBF08953D
:100430009DE1899FF0011124E850FE4F248D91E049
:10044000811190E0291721F091E0611190E0692F6E
:100450009091F601992319F091E0981B892F882338
:1004600039F088E09BB1662329F0892B8BB9089578
:1004700080E1F8CF80958923F9CF1F920F920FB6B4
:100480000F9211242F933F934F935F936F937F931A
:100490008F939F93AF93BF93EF93FF9388E591E082
:1004A0000E94EC00FF91EF91BF91AF919F918F91CE
:1004B0007F916F915F914F913F912F910F900FBE60
:1004C0000F901F9018951F920F920FB60F92112444
:1004D0002F938F939F93EF93FF93E0916801F09197
:1004E00069018081E0916E01F0916F0182FD1BC076
:1004F0009081809171018F5F8F73209172018217BB
:1005000041F0E0917101F0E0E85AFE4F958F809341
:100510007101FF91EF919F918F912F910F900FBEDD
:100520000F901F9018958081F4CF1F920F920FB6F5
:100530000F9211242F933F938F939F93AF93BF9369
:100540008091170190911801A0911901B0911A01A1
:100550003091160126E0230F2D3758F50296A11D84
:10056000B11D209316018093170190931801A09359
:100570001901B0931A018091120190911301A09179
:100580001401B09115010196A11DB11D80931201B6
:1005900090931301A0931401B0931501BF91AF91F3
:1005A0009F918F913F912F910F900FBE0F901F90B1
:1005B000189529E8230F0396A11DB11DD2CF1F92D4
:1005C0000F920FB60F921124FF920F931F932F9348
:1005D0003F934F935F936F937F938F939F93AF93CB
:1005E000BF93CF93DF93EF93FF93D0E0C0E01DE183
:1005F00001E0FC2E1C9FF0011D9FF00D1124E8501E
:10060000FE4F8081882319F18781843008F0A3C0D0
:10061000858161E0811160E08F2D0E9418021C9F8E
:10062000F0011D9FF00D1124E850FE4F87818F5F70
:100630008783883060F0178286818F5F868382325D
:1006400008F48BC0108261E08F2D0E941802809107
:10065000F601882319F0802F8F19F82EF1109AC017
:1006600080B785FB882780F91C9FF0011D9FF00D46
:100670001124E850FE4F938D911180271C9FF001AB
:100680001D9FF00D1124E850FE4F9089981749F0F6
:100690009081911106C0918D9F3F19F0918D9F5FC0
:1006A000918F1C9FF0011D9FF00D1124E850FE4F0B
:1006B00096859F3F19F096859F5F96871C9FF00156
:1006C0001D9FF00D1124E850FE4F9089981709F4F2
:1006D000D2C0268516869085911162C090819111B5
:1006E0000CC09089913049F4811107C0908715861C
:1006F000118612861386148617861C9FF0011D9F93
:10070000F00D1124E850FE4F808B219709F5B19B25
:1007100009C08091F5018F3F29F08091F5018F5F2D
:100720008093F501FF91EF91DF91CF91BF91AF9150
:100730009F918F917F916F915F914F913F912F91F9
:100740001F910F91FF900F900FBE0F901F90189563
:10075000C1E0D0E04ECF65815FCF8681813211F458
:10076000058375CF81819281A381B4818827B7FDEC
:1007700083959927AA27BB27858381819281A381AD
:10078000B481880F991FAA1FBB1F81839283A38303
:10079000B4835DCF89B185FB882780F9802764CF3A
:1007A0009785992351F191E0263008F490E01C9F41
:1007B000F0011D9FF00D1124E850FE4F97879923FB
:1007C00009F49BCF958591111AC0811107C010863D
:1007D000268937892F5F3F4F378B268B1C9FF0016F
:1007E0001D9FF00D1124E850FE4F9085992309F4C8
:1007F00084CF95859F5F958780CF91E0D8CF9585F1
:10080000913270F44185528563857485440F551F7C
:10081000661F771F482B4187528763877487DECF17
:1008200081110FC0268937892F5F3F4F378B268B69
:100830001C9FF0011D9FF00D1124E850FE4F108603
:10084000CDCF9189992339F0908D9F3F89F3908D79
:100850009F5F908FEDCF4185528563857485428B74
:10086000538B648B758B018B928D9F3008F7928D23
:100870009F5F928FDDCF9085992309F43ECF9685B7
:10088000913108F43ACF1086268937892F5F3F4F80
:10089000378B268B32CFCF93DF93CDB7DEB76897F8
:1008A0000FB6F894DEBF0FBECDBF789484B58260DA
:1008B00084BD84B5816084BD85B5826085BD85B504
:1008C000816085BD80916E00816080936E00109282
:1008D00081008091810082608093810080918100FD
:1008E000816080938100809180008160809380008E
:1008F0008091B10084608093B1008091B0008160EC
:100900008093B00080917A00846080937A00809117
:100910007A00826080937A0080917A008E7F809343
:100920007A0080917A00806880937A001092C100EA
:100930008FE184B915B880E387B98FEC88B98EE16F
:100940008AB989E18BB961E081E00E94180261E017
:1009500080E00E941802229A2A983A98429A3C9A79
:1009600044989DE1E8EFF1E0DF01292F1D922A95DF
:10097000E9F781E080930802E5E1F2E0DF011D92F2
:100980009A95E9F780932502E0916801F091690159
:1009900092E09083E0916401F09165011082E09112
:1009A0006601F091670187E6808310927001E09103
:1009B0006C01F0916D0186E08083E0916A01F09115
:1009C0006B01808180618083E0916A01F0916B010D
:1009D000808188608083E0916A01F0916B01808161
:1009E00080688083E0916A01F0916B0180818F7D46
:1009F000808380E480BFE4ECF0E03197F1F780E59C
:100A000080BF1092800089E08093810027EE33E060
:100A10003093890020938800109285001092840002
:100A200090936F0080915D0280FF86C010925C02FF
:100A30000E947B01605E734984409109609351017B
:100A4000709352018093530190935401789488E1FC
:100A50009FE00FB6F894A895809360000FBE909326
:100A600060005AE0852E912CA12CB12C212C312C28
:100A70002101339401E04AE0642EA89580913C0165
:100A800090913D018130910509F45EC208F45AC08D
:100A9000029709F439C20E947B0120912F01309105
:100AA00030014091310150913201621B730B840B74
:100AB000950B693873418105910510F0109256022B
:100AC0000E947B0120911B0130911C0140911D016E
:100AD00050911E01621B730B840B950B6938734197
:100AE0008105910510F01092570288E591E00E946F
:100AF000CC00892B09F4E7C388E591E00E94AA00A5
:100B0000E0915001E11102C0813F79F791E09E0F21
:100B100090935001F0E0E05CFE4F8083903128F329
:100B200010925001E0E4F1E090E180E0915009F48E
:100B30000BC32191820FFACF80915C028F5F80936B
:100B40005C0276CF9FB7F89480910902882309F45C
:100B500048C0C0900A02D0900B02E0900C02F090C6
:100B60000D021092090281E09FBF811170C0809137
:100B70005602811190CF0E947B0120913801309163
:100B8000390140913A0150913B01621B730B840B78
:100B9000950B693E73408105910508F47CCF0E9456
:100BA0007B01609338017093390180933A019093EF
:100BB0003B0180914902882331F081E09091440209
:100BC000911101C080E09091370121E0290F20931D
:100BD000370190FF08C0811124C060E070E0CB01B4
:100BE00008C080E0C1CF8823C1F360E071E080E0FD
:100BF00090E00E948701AB01BC0181E00E940502E8
:100C00000E947B016093330170933401809335011E
:100C10009093360181E090E090933D0180933C01F8
:100C20003ACF60914402669DB0011124072E000C5A
:100C3000880B990B982F872F762F6627A501940193
:100C40000E94A30BCA01B90181609061D2CF0E94BA
:100C50007B0160932F017093300180933101909359
:100C6000320100935602C701B6010E94C6018111EC
:100C700009C08091F7018F3008F00DCF8F5F80930E
:100C8000F70109CF1E2DD701C6012CE1B695A79516
:100C9000979587952A95D1F7282F2770722E41E0D6
:100CA000421748F0113071F108F459C0103109F4BD
:100CB00048C01831C1F180914002882309F452C024
:100CC00081E07812BAC0C701B6019F7090650E949A
:100CD00087016093270170932801809329019093E5
:100CE0002A010E947B01685D7F4F8F4F9F4F609369
:100CF000230170932401809325019093260182E0C3
:100D000090E08ACFD6012AE030E00E94C20BA20117
:100D100091010E94A30BC9016AE070E00E948F0B51
:100D200060934D02C8CFD6012AE030E00E94C20B8A
:100D3000A20191010E94A30B30934F0220934E0217
:100D4000BACFD6012AE030E00E94C20BA201910185
:100D50000E94A30B3093510220935002ACCFD0924B
:100D60004B02A9CF8091570281111EC00E947B01C6
:100D700020912B0130912C0140912D0150912E0199
:100D8000621B730B840B950B6031774281059105D3
:100D900008F496CF0E947B0160932B0170932C0185
:100DA00080932D0190932E01C0921F01D0922001BB
:100DB000E0922101F092220180914A02882339F1C8
:100DC00091E0791224C0113011F560913602653638
:100DD00008F064E6669DB0011124072E000C880B14
:100DE000990B982F872F762F6627A50194010E94D3
:100DF000A30BCC24DD24E894F7F8CA01B9016C29CF
:100E00007D298E299F290E9487016B017C01B701F2
:100E1000A60181E00E9405020E947B0160933301DC
:100E2000709334018093350190933601A1E0B0E0D6
:100E3000B0933D01A0933C012ECE772029F0C7014D
:100E4000B6019F70906743CF193009F43DC0E8F4B4
:100E50001330B9F11530A9F11111F1CF80914B0286
:100E600020E080FD22E080913F028111286030E087
:100E7000C701B601662777279927906450E040E0C4
:100E8000622B732B842B952B22CF193149F1A0F4BF
:100E90001131A9F660913E02669DB0011124072E22
:100EA000000C880B990B982F872F762F6627A501AA
:100EB00094010E94A30BDCCF1C3191F0143609F091
:100EC000BECF30E020E0D4CF809149028823C9F31F
:100ED00060913B0270913C026115710591F3DFCF87
:100EE00080914902811105C0C701B6019F709066CB
:100EF000EECE6091370270913802193181F2609123
:100F0000390270913A02CBCF0E947B0120912301DC
:100F1000309124014091250150912601621B730BF1
:100F2000840B950B97FDB7CD409127015091280177
:100F30006091290170912A0180E00E9405021092BF
:100F40003D0110923C01A7CD9FB7F89480912602F5
:100F5000882309F452C0C0902702D0902802E09064
:100F60002902F0902A021092260281E09FBF882376
:100F700009F4B4C00E947B0160931B0170931C01B3
:100F800080931D0190931E0100935702C701B60183
:100F90000E94C601882399F2D701C6016CE1B6957B
:100FA000A795979587956A95D1F7182F17708CEFAD
:100FB000810F823050F4C701AA27BB27853009F47E
:100FC00041C0E8F4882309F440C080914902882395
:100FD00089F08E2D60913B0270913C026115710584
:100FE00029F08930A9F1843609F44FC09091350277
:100FF00091114EC0B701A6019FCF80E0B7CF8131DC
:1010000081F0893111F7D6012AE030E00E94C20B4D
:10101000A20191010E94A30B30935302209352022C
:10102000D4CFD6012AE030E00E94C20BA201910188
:101030000E94A30BC9016AE070E00E948F0B6093CD
:101040005402C3CFC0925502C0CFC0924C02BDCF54
:10105000072E000C880B990B982F872F762F662769
:10106000A50194010E94A30BCC24DD24FF246894E5
:10107000F6F8B90190E080E06C297D298E299F293E
:101080000E9487016B017C01B5CF30E020E0ECCFFE
:10109000143009F0AFCF893141F08C3109F0AACF7B
:1010A0006091390270913A0204C0609137027091E8
:1010B0003802072E000C880B990B982F872F762F5C
:1010C0006627A50194010E94A30BCA01B9018827D4
:1010D0009927CC24DD24E894F7F8CECF0E947B0139
:1010E0002091330130913401409135015091360106
:1010F000621B730B840B950B61397140810591055F
:1011000008F4C9CC80911F0190912001A091210188
:10111000B0912201A11113C060914C0270E090E0E7
:1011200080E090640E9487016093270170932801FA
:101130008093290190932A010E947B01D8CDBC01A4
:10114000CD019F709067EECF90914F01981751F0AD
:1011500080913E0190913F01019690933F018093D1
:101160003E01C3CC90914101892F8170809334025C
:1011700091FB882780F98093350292FB882780F9BC
:101180008093130293FB882780F98093300294FBAD
:10119000882780F9809341028091420183FB2227B6
:1011A00020F92093420284FB222720F92093430256
:1011B00020914D012093440295FB992790F990933B
:1011C00055019091140221E0911101C020E090910D
:1011D0003102992309F473C092E0922B2091F60119
:1011E000222309F46EC024E0382F317030931402AA
:1011F00081FB332730F93093310282FB332730F9FA
:101200003093F601922B8770981779F08091F8014E
:10121000811103C061E00E941802809115028111C2
:1012200004C061E081E00E94180280914301809334
:10123000360280914401909145019827892798278B
:101240009093380280933702809146019091470134
:1012500098278927982790933A02809339028091A2
:1012600048019091490198278927982790933C023B
:1012700080933B0280914A0180933D0280914B0113
:1012800080933E0280914C018093570180914101EF
:1012900086FB992790F990933F02881F8827881F23
:1012A000809340020E947B01609345027093460246
:1012B00080934702909348020093490216CC90E035
:1012C0008CCF20E091CF10914902112331F10E947F
:1012D0007B01209145023091460240914702509196
:1012E0004802621B730B840B950B7090490210919E
:1012F000340261367A4E8105910580F010924902E0
:10130000109234021092350210923C0210923B026D
:101310001092400210923D0210E0712C80914A021E
:101320008117F9F00E947B01209151013091520107
:101330004091530150915401621B730B840B950B28
:10134000603E73498440910560F010934A020E9408
:101350007B016093510170935201809353019093EC
:10136000540180913D028230B9F190F48130B1F1A5
:1013700080914C0280FD30C080915602882361F03C
:1013800071102CC00E947B0171FB662760F90EC0B2
:101390008330C1F3843061F70E947B0127E096958A
:1013A0008795779567952A95D1F76170809155015A
:1013B000811160276623A1F0449A8091420288231C
:1013C00089F086B182FB882780F9802780935601B7
:1013D00081110EC02A980DC061E0E8CF60E0E6CF31
:1013E0004498EBCF80914902811109C000935601C6
:1013F0002A9A80915601882329F0459811C080913E
:101400004102E4CF80914A02882309F417C18091F8
:10141000360290914302992381F3843170F3459A07
:101420008091570180FF0DC1289A8091570181FF5B
:101430000AC1299A8091570182FF07C12B9A809196
:10144000570183FF04C12C9A8091570184FF01C189
:101450005A9A0E947B012091580230915902409182
:101460005A0250915B02621B730B840B950B97FD24
:101470001CC10E947B016053784F8F4F9F4F609338
:1014800058027093590280935A0290935B0280EF46
:10149000898380914B028A8380914C028B83809157
:1014A0004D028C8380914E0290914F029D838E83DA
:1014B00080915002909151029F83888780915202BF
:1014C0009091530299878A87809154028B878091EB
:1014D00055028C878091560290915702992309F406
:1014E000BAC092E0892B90914A02992309F4B5C0C1
:1014F00094E0892B9091490228E0911101C020E0ED
:10150000909132029295907F822B892B8D879FB785
:10151000F894809111028E871092110280912E0210
:101520008F8710922E02809112022091F701A0E184
:101530002A9F900111248F70822B888B10921202A7
:101540001092F70180B785FB222720F94D9B87C0B9
:1015500042E05C9B86C034E08BB18870822B842B88
:10156000832B2091F601222309F47DC020E1822BF8
:1015700020911402222309F478C020E2822B2091CA
:101580003102222309F473C020E4822B898B20913D
:101590000E0230910F022F3F310511F008F069C0A3
:1015A00020910E0230910F022A8B20912B02309154
:1015B0002C022F3F310511F008F05DC020912B0265
:1015C00030912C022B8B9FBF86B182FB882780F93C
:1015D00080272A9B52C092E0892B90914202992346
:1015E00009F44DC094E0892B459B4BC098E0892BB2
:1015F0008C8B86B196B181709270892B339B43C0DE
:1016000094E0892B8D8B80915D028F7020915C021C
:10161000B0E12B9F90011124822B8E8B8FB7F89411
:101620009091F5019F8B8FBFFE01319698E180E08C
:10163000BF01915051F12191820FFBCF80914D025A
:10164000E8CE2898F2CE2998F5CE2B98F8CE2C9893
:10165000FBCE5A98FECE90E045CF90E04ACF40E0D6
:1016600078CF30E079CF20E082CF20E087CF20E034
:101670008CCF2FEF99CF2FEFA5CF90E0ADCF90E09B
:10168000B2CF90E0B4CF90E0BCCF888F809132028F
:10169000909133020196909333028093320248E195
:1016A00050E088E591E00E946E0080E090E0892B98
:1016B00009F4E3C90E94D800882309F4DBC90E9419
:1016C0000000D8C9E8E5F1E01382128288EE93E0C9
:1016D000A0E0B0E084839583A683B78384E091E0A3
:1016E0009183808385EC90E09587848784EC90E0FB
:1016F0009787868780EC90E0918B808B81EC90E0DF
:10170000938B828B82EC90E0958B848B86EC90E0BF
:10171000978B868B118E128E138E148E089597FBE5
:10172000072E16F4009407D077FD09D00E94C90B4C
:1017300007FC05D03EF4909581959F4F08957095D4
:1017400061957F4F0895052E97FB1EF400940E942B
:10175000BA0B57FD07D00E94DD0B07FC03D04EF4F7
:101760000C94BA0B50954095309521953F4F4F4FB3
:101770005F4F089590958095709561957F4F8F4F3D
:101780009F4F08950E94050CB7FF0895821B930B8D
:101790000895AA1BBB1B51E107C0AA1FBB1FA617B8
:1017A000B70710F0A61BB70B881F991F5A95A9F70A
:1017B00080959095BC01CD010895A1E21A2EAA1B37
:1017C000BB1BFD010DC0AA1FBB1FEE1FFF1FA217F1
:1017D000B307E407F50720F0A21BB30BE40BF50BEE
:1017E000661F771F881F991F1A9469F76095709577
:1017F000809590959B01AC01BD01CF010895EE0F3E
:10180000FF1F0590F491E02D0994A29FB001B39FB2
:10181000C001A39F700D811D1124911DB29F700DF9
:0C182000811D1124911D0895F894FFCF44
:10182C00000000000E016E009B005B01CC00AA00C2
:02183C00BE00EC
:00000001FF
