:100000000C9435000C946C000C946C000C946C00F7
:100010000C946C000C946C000C946C000C946C00B0
:100020000C946C000C946C000C946C000C94DF022B
:100030000C946C000C946C000C946C000C946C0090
:100040000C9495020C946C000C9463020C943D0289
:100050000C946C000C946C000C946C000C946C0070
:100060000C946C000C946C00400B11241FBECFEF5D
:10007000D8E0DEBFCDBF84B78093590214BE0FB65F
:10008000F894A89580916000886180936000109238
:1000900060000FBE11E0A0E0B1E0E8EEF7E102C0C1
:1000A00005900D92A231B107D9F722E0A2E1B1E0AB
:1000B00001C01D92A835B207E1F710E0C5E3D0E01A
:1000C00004C02197FE010E94DD0BC433D107C9F79C
:1000D0000E944B040C94F20B0C940000AF92BF9260
:1000E000CF92DF92EF92FF920F931F93CF93DF9304
:1000F0006C017B018B01040F151FEB015E01AE1833
:10010000BF08C017D10759F06991D601ED91FC9154
:100110000190F081E02DC6010995892B79F7C50181
:10012000DF91CF911F910F91FF90EF90DF90CF90D3
:10013000BF90AF900895FC01538D448D252F30E082
:10014000842F90E0821B930B541710F0CF960895E4
:1001500001970895FC01918D828D981761F0A28D11
:10016000AE0FBF2FB11D5D968C91928D9F5F9F73D7
:10017000928F90E008958FEF9FEF0895FC01918D8D
:10018000828D981731F0828DE80FF11D858D90E0FA
:1001900008958FEF9FEF0895FC01918D228D892F97
:1001A00090E0805C9F4F821B91098F73992708957F
:1001B00084E591E00E94CC0021E0892B09F420E045
:1001C000822F089580E090E0892B29F00E94D800CA
:1001D00081110C9400000895FC01A48DA80FB92F83
:1001E000B11DA35ABF4F2C91848D90E001968F735F
:1001F0009927848FA689B7892C93A089B1898C917E
:10020000837080648C93938D848D981306C00288CC
:10021000F389E02D80818F7D80830895EF92FF9296
:100220000F931F93CF93DF93EC0181E0888F9B8D19
:100230008C8D98131AC0E889F989808185FF15C0D3
:100240009FB7F894EE89FF896083E889F9898081F6
:100250008370806480839FBF81E090E0DF91CF91C5
:100260001F910F91FF90EF900895F62E0B8D10E0E7
:100270000F5F1F4F0F731127E02E8C8D8E110CC056
:100280000FB607FCFACFE889F989808185FFF5CFA1
:10029000CE010E94EC00F1CFEB8DEC0FFD2FF11D94
:1002A000E35AFF4FF0829FB7F8940B8FEA89FB89DE
:1002B00080818062CFCFCF93DF93EC01888D88233C
:1002C000B9F0AA89BB89E889F9898C9185FD03C0B9
:1002D000808186FD0DC00FB607FCF7CF8C9185FF9E
:1002E000F2CF808185FFEDCFCE010E94EC00E9CFF7
:1002F000DF91CF9108952FB7F89460911701709115
:1003000018018091190190911A012FBF0895CF9281
:10031000DF92EF92FF920F931F938C0122273327D6
:100320000627172728273927C12ED22EE32EFF2490
:10033000C026D126E226F3269701860154E03695A1
:100340002795179507955A95D1F7C026D126E2260D
:10035000F32697018601E2E03695279517950795D4
:10036000EA95D1F70C251D252E253F256801790139
:10037000F694E794D794C7940C2500FD90681F91DC
:100380000F91FF90EF90DF90CF9008950F931F9300
:100390008C0122273327DC01CB0180279127A2275C
:1003A000B327492F5A2F6B2F772784279527A62706
:1003B000B727AC01BD01E4E0769567955795479561
:1003C000EA95D1F784279527A627B727AC01BD0169
:1003D000F2E07695679557954795FA95D1F784277A
:1003E0009527A627B727AC01BD0176956795579548
:1003F000479584279527A627B72780959095A095A0
:10040000B09581701F910F9108959FB7F8942DE1D9
:10041000829FF0011124EC50FE4F4183528363838D
:10042000748381E085831682178280839FBF08953D
:100430009DE1899FF0011124EC50FE4F248D91E045
:10044000811190E0291721F091E0611190E0692F6E
:100450009091F201992319F091E0981B892F88233C
:1004600039F088E09BB1662329F0892B8BB9089578
:1004700080E1F8CF80958923F9CF1F920F920FB6B4
:100480000F9211242F933F934F935F936F937F931A
:100490008F939F93AF93BF93EF93FF9384E591E086
:1004A0000E94EC00FF91EF91BF91AF919F918F91CE
:1004B0007F916F915F914F913F912F910F900FBE60
:1004C0000F901F9018951F920F920FB60F92112444
:1004D0002F938F939F93EF93FF93E0916401F0919B
:1004E00065018081E0916A01F0916B0182FD1BC082
:1004F000908180916D018F5F8F7320916E018217C3
:1005000041F0E0916D01F0E0EC5AFE4F958F809341
:100510006D01FF91EF919F918F912F910F900FBEE1
:100520000F901F9018958081F4CF1F920F920FB6F5
:100530000F9211242F933F938F939F93AF93BF9369
:100540008091170190911801A0911901B0911A01A1
:100550003091160126E0230F2D3758F50296A11D84
:10056000B11D209316018093170190931801A09359
:100570001901B0931A018091120190911301A09179
:100580001401B09115010196A11DB11D80931201B6
:1005900090931301A0931401B0931501BF91AF91F3
:1005A0009F918F913F912F910F900FBE0F901F90B1
:1005B000189529E8230F0396A11DB11DD2CF1F92D4
:1005C0000F920FB60F921124FF920F931F932F9348
:1005D0003F934F935F936F937F938F939F93AF93CB
:1005E000BF93CF93DF93EF93FF93D0E0C0E01DE183
:1005F00001E0FC2E1C9FF0011D9FF00D1124EC501A
:10060000FE4F8081882319F18781843008F0A3C0D0
:10061000858161E0811160E08F2D0E9418021C9F8E
:10062000F0011D9FF00D1124EC50FE4F87818F5F6C
:100630008783883060F0178286818F5F868382325D
:1006400008F48BC0108261E08F2D0E941802809107
:10065000F201882319F0802F8F19F82EF1109AC01B
:1006600080B785FB882780F91C9FF0011D9FF00D46
:100670001124EC50FE4F938D911180271C9FF001A7
:100680001D9FF00D1124EC50FE4F9089981749F0F2
:100690009081911106C0918D9F3F19F0918D9F5FC0
:1006A000918F1C9FF0011D9FF00D1124EC50FE4F07
:1006B00096859F3F19F096859F5F96871C9FF00156
:1006C0001D9FF00D1124EC50FE4F9089981709F4EE
:1006D000D2C0268516869085911162C090819111B5
:1006E0000CC09089913049F4811107C0908715861C
:1006F000118612861386148617861C9FF0011D9F93
:10070000F00D1124EC50FE4F808B219709F5B19B21
:1007100009C08091F1018F3F29F08091F1018F5F35
:100720008093F101FF91EF91DF91CF91BF91AF9154
:100730009F918F917F916F915F914F913F912F91F9
:100740001F910F91FF900F900FBE0F901F90189563
:10075000C1E0D0E04ECF65815FCF8681813211F458
:10076000058375CF81819281A381B4818827B7FDEC
:1007700083959927AA27BB27858381819281A381AD
:10078000B481880F991FAA1FBB1F81839283A38303
:10079000B4835DCF89B185FB882780F9802764CF3A
:1007A0009785992351F191E0263008F490E01C9F41
:1007B000F0011D9FF00D1124EC50FE4F97879923F7
:1007C00009F49BCF958591111AC0811107C010863D
:1007D000268937892F5F3F4F378B268B1C9FF0016F
:1007E0001D9FF00D1124EC50FE4F9085992309F4C4
:1007F00084CF95859F5F958780CF91E0D8CF9585F1
:10080000913270F44185528563857485440F551F7C
:10081000661F771F482B4187528763877487DECF17
:1008200081110FC0268937892F5F3F4F378B268B69
:100830001C9FF0011D9FF00D1124EC50FE4F1086FF
:10084000CDCF9189992339F0908D9F3F89F3908D79
:100850009F5F908FEDCF4185528563857485428B74
:10086000538B648B758B018B928D9F3008F7928D23
:100870009F5F928FDDCF9085992309F43ECF9685B7
:10088000913108F43ACF1086268937892F5F3F4F80
:10089000378B268B32CFCF93DF93CDB7DEB76897F8
:1008A0000FB6F894DEBF0FBECDBF789484B58260DA
:1008B00084BD84B5816084BD85B5826085BD85B504
:1008C000816085BD80916E00816080936E00109282
:1008D00081008091810082608093810080918100FD
:1008E000816080938100809180008160809380008E
:1008F0008091B10084608093B1008091B0008160EC
:100900008093B00080917A00846080937A00809117
:100910007A00826080937A0080917A008E7F809343
:100920007A0080917A00806880937A001092C100EA
:100930008FE184B915B880E387B98FEC88B98EE16F
:100940008AB989E18BB961E081E00E94180261E017
:1009500080E00E941802229A2A983A98429A3C9A79
:1009600044989DE1E4EFF1E0DF01292F1D922A95E3
:10097000E9F781E080930402E1E1F2E0DF011D92FA
:100980009A95E9F780932102E0916401F091650165
:1009900092E09083E0916001F09161011082E0911A
:1009A0006201F091630187E6808310926C01E0910F
:1009B0006801F091690186E08083E0916601F09121
:1009C0006701808180618083E0916601F091670119
:1009D000808188608083E0916601F0916701808169
:1009E00080688083E0916601F091670180818F7D4E
:1009F000808380E480BFE4ECF0E03197F1F780E59C
:100A000080BF1092800089E08093810027EE33E060
:100A10003093890020938800109285001092840002
:100A200090936F008091590280FF86C01092580207
:100A30000E947B01605E73498440910960934D017F
:100A400070934E0180934F0190935001789488E108
:100A50009FE00FB6F894A895809360000FBE909326
:100A600060005AE0852E912CA12CB12C212C312C28
:100A70002101339401E04AE0642EA8958091380169
:100A8000909139018130910509F432C208F45AC0BD
:100A9000029709F40DC20E947B0120912B01309135
:100AA0002C0140912D0150912E01621B730B840B80
:100AB000950B693873418105910510F0109252022F
:100AC0000E947B0120911B0130911C0140911D016E
:100AD00050911E01621B730B840B950B6938734197
:100AE0008105910510F01092530284E591E00E9477
:100AF000CC00892B09F4C5C384E591E00E94AA00CB
:100B0000E0914C01E11102C0813F79F791E09E0F25
:100B100090934C01F0E0E45CFE4F8083903128F329
:100B200010924C01ECE3F1E090E180E0915009F487
:100B3000E9C22191820FFACF809158028F5F809392
:100B4000580276CF9FB7F89480910502882309F464
:100B500048C0C0900602D0900702E0900802F090D2
:100B600009021092050281E09FBF811170C080913F
:100B70005202811190CF0E947B012091340130916B
:100B800035014091360150913701621B730B840B84
:100B9000950B693E73408105910508F47CCF0E9456
:100BA0007B016093340170933501809336019093FB
:100BB000370180914502882331F081E09091400215
:100BC000911101C080E09091330121E0290F209321
:100BD000330190FF08C0811124C060E070E0CB01B8
:100BE00008C080E0C1CF8823C1F360E071E080E0FD
:100BF00090E00E948701AB01BC0181E00E940502E8
:100C00000E947B0160932F0170933001809331012A
:100C10009093320181E090E0909339018093380104
:100C20003ACF60914002669DB0011124072E000C5E
:100C3000880B990B982F872F762F6627A501940193
:100C40000E94810BCA01B90181609061D2CF0E94DC
:100C50007B0160932B0170932C0180932D01909365
:100C60002E0100935202C701B6010E94C6018111F4
:100C700009C08091F3018F3008F00DCF8F5F809312
:100C8000F30109CF1E2DD701C6012CE1B695A7951A
:100C9000979587952A95D1F7282F2770722E41E0D6
:100CA000421750F01130B9F108F462C0103109F464
:100CB00051C0183109F440C080915302882329F0B3
:100CC00080913C02882309F4BDC081E0781253C0B2
:100CD000C701B6019F7090650E948701609327014C
:100CE000709328018093290190932A010E947B012F
:100CF000685D7F4F8F4F9F4F609323017093240156
:100D00008093250190932601A2E0B0E0B0933901D1
:100D1000A0933801C0CED6012AE030E00E94A00B9B
:100D2000A20191010E94810BC9016AE070E00E945A
:100D30006D0B60934902C0CFD6012AE030E00E94DB
:100D4000A00BA20191010E94810B30934B022093D2
:100D50004A02B2CFD6012AE030E00E94A00BA201E5
:100D600091010E94810B30934D0220934C02A4CF3D
:100D7000D0924702A1CF772029F0C701B6019F701A
:100D80009067AACF193009F43DC0E8F41330B9F1E7
:100D90001530A9F11111F1CF8091470220E080FDBB
:100DA00022E080913B028111286030E0C701B6014A
:100DB000662777279927906450E040E0622B732BD9
:100DC000842B952B89CF193149F1A0F41131A9F663
:100DD00060913A02669DB0011124072E000C880B29
:100DE000990B982F872F762F6627A50194010E94D3
:100DF000810BDCCF1C3191F0143609F0BECF30E00E
:100E000020E0D4CF809145028823C9F36091370256
:100E1000709138026115710591F3DFCF8091450221
:100E2000811105C0C701B6019F70906655CF6091D2
:100E3000330270913402193181F260913502709160
:100E40003602CBCF80914602C0921F01D092200182
:100E5000E0922101F0922201882339F1B1E07B1266
:100E600024C0113011F560913202653608F064E655
:100E7000669DB0011124072E000C880B990B982F4A
:100E8000872F762F6627A50194010E94810BCC2421
:100E9000DD24E894F7F8CA01B9016C297D298E296F
:100EA0009F290E9487016B017C01B701A601A5CE95
:100EB0000E947B0120912301309124014091250162
:100EC00050912601621B730B840B950B97FDE3CDAC
:100ED00040912701509128016091290170912A01C8
:100EE00080E00E9405021092390110923801D3CDA2
:100EF0009FB7F89480912202882309F452C0C090D1
:100F00002302D0902402E0902502F0902602109255
:100F1000220281E09FBF882309F4B4C00E947B01B4
:100F200060931B0170931C0180931D0190931E011F
:100F300000935302C701B6010E94C601882399F2AB
:100F4000D701C6016CE1B695A795979587956A95E7
:100F5000D1F7182F17708CEF810F823050F4C70132
:100F6000AA27BB27853009F441C0E8F4882309F497
:100F700040C080914502882389F08E2D6091370210
:100F8000709138026115710529F08930A9F1843614
:100F900009F44FC09091310291114EC0B701A601E2
:100FA0009FCF80E0B7CF813181F0893111F7D60131
:100FB0002AE030E00E94A00BA20191010E94810B67
:100FC00030934F0220934E02D4CFD6012AE030E076
:100FD0000E94A00BA20191010E94810BC9016AE04D
:100FE00070E00E946D0B60935002C3CFC09251021B
:100FF000C0CFC0924802BDCF072E000C880B990BC2
:10100000982F872F762F6627A50194010E94810BC8
:10101000CC24DD24FF246894F6F8B90190E080E048
:101020006C297D298E299F290E9487016B017C01F3
:10103000B5CF30E020E0ECCF143009F0AFCF8931EC
:1010400041F08C3109F0AACF6091350270913602DF
:1010500004C06091330270913402072E000C880B9B
:10106000990B982F872F762F6627A50194010E9450
:10107000810BCA01B90188279927CC24DD24E89483
:10108000F7F8CECF0E947B0120912F0130913001E3
:101090004091310150913201621B730B840B950B0F
:1010A000613971408105910508F4F5CC80911F01EB
:1010B00090912001A0912101B0912201A1111DC0A8
:1010C0006091480270E090E080E090640E948701A7
:1010D00060932701709328018093290190932A013E
:1010E0000E947B016093230170932401809325016A
:1010F0009093260182E090E08FCDBC01CD019F70DE
:101100009067E4CF90914B01981751F080913A018C
:1011100090913B01019690933B0180933A01E5CC7D
:1011200090913D01892F81708093300291FB882737
:1011300080F98093310292FB882780F980930F0217
:1011400093FB882780F980932C0294FB882780F9F1
:1011500080933D0280913E0183FB222720F920935A
:101160003E0284FB222720F920933F02209149016F
:101170002093400295FB992790F99093510190910B
:10118000100221E0911101C020E090912D029923DD
:1011900009F473C092E0922B2091F201222309F40A
:1011A0006EC024E0382F31703093100281FB33275A
:1011B00030F930932D0282FB332730F93093F2015E
:1011C000922B8770981779F08091F401811103C0F8
:1011D00061E00E94180280911102811104C061E057
:1011E00081E00E94180280913F0180933202809139
:1011F00040019091410198278927982790933402C4
:10120000809333028091420190914301982789276E
:1012100098279093360280933502809144019091F3
:1012200045019827892798279093380280933702A1
:1012300080914601809339028091470180933A0260
:10124000809148018093530180913D0186FB99274D
:1012500090F990933B02881F8827881F80933C0257
:101260000E947B016093410270934202809343028B
:10127000909344020093450238CC90E08CCF20E05C
:1012800091CF10914502112331F10E947B012091F1
:101290004102309142024091430250914402621B4C
:1012A000730B840B950B70904502109130026136E0
:1012B0007A4E8105910580F010924502109230021D
:1012C00010923102109238021092370210923C02B2
:1012D0001092390210E0712C809146028117F9F0CA
:1012E0000E947B0120914D0130914E0140914F01B0
:1012F00050915001621B730B840B950B603E734938
:101300008440910560F0109346020E947B01609337
:101310004D0170934E0180934F0190935001809145
:1013200039028230B9F190F48130B1F180914802F4
:1013300080FD30C080915202882361F071102CC072
:101340000E947B0171FB662760F90EC08330C1F3F8
:10135000843061F70E947B0127E096958795779509
:1013600067952A95D1F761708091510181116027AD
:101370006623A1F0449A80913E02882389F086B1C9
:1013800082FB882780F980278093520181110EC04B
:101390002A980DC061E0E8CF60E0E6CF4498EBCF3B
:1013A00080914502811109C0009352012A9A8091CF
:1013B0005201882329F0459811C080913D02E4CF65
:1013C00080914602882309F417C1809132029091DE
:1013D0003F02992381F3843170F3459A8091530140
:1013E00080FF0DC1289A8091530181FF0AC1299A7B
:1013F0008091530182FF07C12B9A8091530183FF93
:1014000004C12C9A8091530184FF01C15A9A0E9411
:101410007B01209154023091550240915602509127
:101420005702621B730B840B950B97FD1CC10E9426
:101430007B016053784F8F4F9F4F6093540270939E
:101440005502809356029093570280EF89838091D2
:1014500047028A83809148028B83809149028C8362
:1014600080914A0290914B029D838E8380914C0221
:1014700090914D029F83888780914E0290914F02F8
:1014800099878A87809150028B87809151028C873F
:101490008091520290915302992309F4BAC092E0CC
:1014A000892B90914602992309F4B5C094E0892BC9
:1014B0009091450228E0911101C020E090912E0208
:1014C0009295907F822B892B8D879FB7F89480917E
:1014D0000D028E8710920D0280912A028F87109242
:1014E0002A0280910E022091F301A0E12A9F90012F
:1014F00011248F70822B888B10920E021092F301B0
:1015000080B785FB222720F94D9B87C042E05C9B7A
:1015100086C034E08BB18870822B842B832B209182
:10152000F201222309F47DC020E1822B20911002D8
:10153000222309F478C020E2822B20912D0222235D
:1015400009F473C020E4822B898B20910A02309128
:101550000B022F3F310511F008F069C020910A02FB
:1015600030910B022A8B20912702309128022F3FC5
:10157000310511F008F05DC020912702309128025A
:101580002B8B9FBF86B182FB882780F980272A9BFF
:1015900052C092E0892B90913E02992309F44DC0EC
:1015A00094E0892B459B4BC098E0892B8C8B86B1AE
:1015B00096B181709270892B339B43C094E0892B44
:1015C0008D8B809159028F7020915802B0E12B9F32
:1015D00090011124822B8E8B8FB7F8949091F1019A
:1015E0009F8B8FBFFE01319698E180E0BF01915043
:1015F00051F12191820FFBCF80914902E8CE2898CA
:10160000F2CE2998F5CE2B98F8CE2C98FBCE5A988E
:10161000FECE90E045CF90E04ACF40E078CF30E07A
:1016200079CF20E082CF20E087CF20E08CCF2FEF52
:1016300099CF2FEFA5CF90E0ADCF90E0B2CF90E063
:10164000B4CF90E0BCCF888F80912E0290912F0272
:10165000019690932F0280932E0248E150E084E59A
:1016600091E00E946E0080E090E0892B09F405CAA9
:101670000E94D800882309F4FDC90E940000FAC91D
:10168000E4E5F1E01382128288EE93E0A0E0B0E09E
:1016900084839583A683B78384E091E091838083DC
:1016A00085EC90E09587848784EC90E09787868727
:1016B00080EC90E0918B808B81EC90E0938B828B1F
:1016C00082EC90E0958B848B86EC90E0978B868BF8
:1016D000118E128E138E148E089597FB072E16F41A
:1016E000009407D077FD09D00E94A70B07FC05D016
:1016F0003EF4909581959F4F0895709561957F4F29
:101700000895052E97FB1EF400940E94980B57FD38
:1017100007D00E94BB0B07FC03D04EF40C94980B2F
:1017200050954095309521953F4F4F4F5F4F08950D
:1017300090958095709561957F4F8F4F9F4F08953D
:101740000E94E30BB7FF0895821B930B0895AA1B19
:10175000BB1B51E107C0AA1FBB1FA617B70710F09C
:10176000A61BB70B881F991F5A95A9F780959095CE
:10177000BC01CD010895A1E21A2EAA1BBB1BFD01DD
:101780000DC0AA1FBB1FEE1FFF1FA217B307E40760
:10179000F50720F0A21BB30BE40BF50B661F771FB8
:1017A000881F991F1A9469F7609570958095909598
:1017B0009B01AC01BD01CF010895EE0FFF1F059005
:1017C000F491E02D0994A29FB001B39FC001A39FA3
:1017D000700D811D1124911DB29F700D811D11246A
:0817E000911D0895F894FFCF5C
:1017E800000000000E016E009B005B01CC00AA0007
:0217F800BE0031
:00000001FF
